{
	"EvenOdd.sol": {
		"If_Else": {
			"abi": [
				{
					"inputs": [
						{
							"internalType": "int256",
							"name": "n",
							"type": "int256"
						}
					],
					"name": "Check",
					"outputs": [
						{
							"internalType": "string",
							"name": "",
							"type": "string"
						}
					],
					"stateMutability": "view",
					"type": "function"
				}
			],
			"devdoc": {
				"kind": "dev",
				"methods": {},
				"version": 1
			},
			"evm": {
				"assembly": "    /* \"EvenOdd.sol\":60:229  contract If_Else{... */\n  mstore(0x40, 0x80)\n  callvalue\n  dup1\n  iszero\n  tag_1\n  jumpi\n  0x00\n  dup1\n  revert\ntag_1:\n  pop\n  dataSize(sub_0)\n  dup1\n  dataOffset(sub_0)\n  0x00\n  codecopy\n  0x00\n  return\nstop\n\nsub_0: assembly {\n        /* \"EvenOdd.sol\":60:229  contract If_Else{... */\n      mstore(0x40, 0x80)\n      callvalue\n      dup1\n      iszero\n      tag_1\n      jumpi\n      0x00\n      dup1\n      revert\n    tag_1:\n      pop\n      jumpi(tag_2, lt(calldatasize, 0x04))\n      shr(0xe0, calldataload(0x00))\n      dup1\n      0xfa6484bd\n      eq\n      tag_3\n      jumpi\n    tag_2:\n      0x00\n      dup1\n      revert\n        /* \"EvenOdd.sol\":85:222  function Check(int n)public  view  returns(string memory){... */\n    tag_3:\n      tag_4\n      0x04\n      dup1\n      calldatasize\n      sub\n      dup2\n      add\n      swap1\n      tag_5\n      swap2\n      swap1\n      tag_6\n      jump\t// in\n    tag_5:\n      tag_7\n      jump\t// in\n    tag_4:\n      mload(0x40)\n      tag_8\n      swap2\n      swap1\n      tag_9\n      jump\t// in\n    tag_8:\n      mload(0x40)\n      dup1\n      swap2\n      sub\n      swap1\n      return\n    tag_7:\n        /* \"EvenOdd.sol\":128:141  string memory */\n      0x60\n        /* \"EvenOdd.sol\":161:162  1 */\n      0x01\n        /* \"EvenOdd.sol\":158:159  1 */\n      dup1\n        /* \"EvenOdd.sol\":156:157  n */\n      dup4\n        /* \"EvenOdd.sol\":156:159  n&1 */\n      and\n        /* \"EvenOdd.sol\":156:162  n&1==1 */\n      sub\n        /* \"EvenOdd.sol\":153:204  if(n&1==1)return \"ODD\";... */\n      tag_11\n      jumpi\n        /* \"EvenOdd.sol\":163:175  return \"ODD\" */\n      mload(0x40)\n      dup1\n      0x40\n      add\n      0x40\n      mstore\n      dup1\n      0x03\n      dup2\n      mstore\n      0x20\n      add\n      0x4f44440000000000000000000000000000000000000000000000000000000000\n      dup2\n      mstore\n      pop\n      swap1\n      pop\n      jump(tag_10)\n        /* \"EvenOdd.sol\":153:204  if(n&1==1)return \"ODD\";... */\n    tag_11:\n        /* \"EvenOdd.sol\":191:204  return \"EVEN\" */\n      mload(0x40)\n      dup1\n      0x40\n      add\n      0x40\n      mstore\n      dup1\n      0x04\n      dup2\n      mstore\n      0x20\n      add\n      0x4556454e00000000000000000000000000000000000000000000000000000000\n      dup2\n      mstore\n      pop\n      swap1\n      pop\n        /* \"EvenOdd.sol\":85:222  function Check(int n)public  view  returns(string memory){... */\n    tag_10:\n      swap2\n      swap1\n      pop\n      jump\t// out\n        /* \"#utility.yul\":88:205   */\n    tag_14:\n        /* \"#utility.yul\":197:198   */\n      0x00\n        /* \"#utility.yul\":194:195   */\n      dup1\n        /* \"#utility.yul\":187:199   */\n      revert\n        /* \"#utility.yul\":334:410   */\n    tag_16:\n        /* \"#utility.yul\":370:377   */\n      0x00\n        /* \"#utility.yul\":399:404   */\n      dup2\n        /* \"#utility.yul\":388:404   */\n      swap1\n      pop\n        /* \"#utility.yul\":334:410   */\n      swap2\n      swap1\n      pop\n      jump\t// out\n        /* \"#utility.yul\":416:536   */\n    tag_17:\n        /* \"#utility.yul\":488:511   */\n      tag_30\n        /* \"#utility.yul\":505:510   */\n      dup2\n        /* \"#utility.yul\":488:511   */\n      tag_16\n      jump\t// in\n    tag_30:\n        /* \"#utility.yul\":481:486   */\n      dup2\n        /* \"#utility.yul\":478:512   */\n      eq\n        /* \"#utility.yul\":468:530   */\n      tag_31\n      jumpi\n        /* \"#utility.yul\":526:527   */\n      0x00\n        /* \"#utility.yul\":523:524   */\n      dup1\n        /* \"#utility.yul\":516:528   */\n      revert\n        /* \"#utility.yul\":468:530   */\n    tag_31:\n        /* \"#utility.yul\":416:536   */\n      pop\n      jump\t// out\n        /* \"#utility.yul\":542:679   */\n    tag_18:\n        /* \"#utility.yul\":587:592   */\n      0x00\n        /* \"#utility.yul\":625:631   */\n      dup2\n        /* \"#utility.yul\":612:632   */\n      calldataload\n        /* \"#utility.yul\":603:632   */\n      swap1\n      pop\n        /* \"#utility.yul\":641:673   */\n      tag_33\n        /* \"#utility.yul\":667:672   */\n      dup2\n        /* \"#utility.yul\":641:673   */\n      tag_17\n      jump\t// in\n    tag_33:\n        /* \"#utility.yul\":542:679   */\n      swap3\n      swap2\n      pop\n      pop\n      jump\t// out\n        /* \"#utility.yul\":685:1012   */\n    tag_6:\n        /* \"#utility.yul\":743:749   */\n      0x00\n        /* \"#utility.yul\":792:794   */\n      0x20\n        /* \"#utility.yul\":780:789   */\n      dup3\n        /* \"#utility.yul\":771:778   */\n      dup5\n        /* \"#utility.yul\":767:790   */\n      sub\n        /* \"#utility.yul\":763:795   */\n      slt\n        /* \"#utility.yul\":760:879   */\n      iszero\n      tag_35\n      jumpi\n        /* \"#utility.yul\":798:877   */\n      tag_36\n      tag_14\n      jump\t// in\n    tag_36:\n        /* \"#utility.yul\":760:879   */\n    tag_35:\n        /* \"#utility.yul\":918:919   */\n      0x00\n        /* \"#utility.yul\":943:995   */\n      tag_37\n        /* \"#utility.yul\":987:994   */\n      dup5\n        /* \"#utility.yul\":978:984   */\n      dup3\n        /* \"#utility.yul\":967:976   */\n      dup6\n        /* \"#utility.yul\":963:985   */\n      add\n        /* \"#utility.yul\":943:995   */\n      tag_18\n      jump\t// in\n    tag_37:\n        /* \"#utility.yul\":933:995   */\n      swap2\n      pop\n        /* \"#utility.yul\":889:1005   */\n      pop\n        /* \"#utility.yul\":685:1012   */\n      swap3\n      swap2\n      pop\n      pop\n      jump\t// out\n        /* \"#utility.yul\":1018:1117   */\n    tag_19:\n        /* \"#utility.yul\":1070:1076   */\n      0x00\n        /* \"#utility.yul\":1104:1109   */\n      dup2\n        /* \"#utility.yul\":1098:1110   */\n      mload\n        /* \"#utility.yul\":1088:1110   */\n      swap1\n      pop\n        /* \"#utility.yul\":1018:1117   */\n      swap2\n      swap1\n      pop\n      jump\t// out\n        /* \"#utility.yul\":1123:1292   */\n    tag_20:\n        /* \"#utility.yul\":1207:1218   */\n      0x00\n        /* \"#utility.yul\":1241:1247   */\n      dup3\n        /* \"#utility.yul\":1236:1239   */\n      dup3\n        /* \"#utility.yul\":1229:1248   */\n      mstore\n        /* \"#utility.yul\":1281:1285   */\n      0x20\n        /* \"#utility.yul\":1276:1279   */\n      dup3\n        /* \"#utility.yul\":1272:1286   */\n      add\n        /* \"#utility.yul\":1257:1286   */\n      swap1\n      pop\n        /* \"#utility.yul\":1123:1292   */\n      swap3\n      swap2\n      pop\n      pop\n      jump\t// out\n        /* \"#utility.yul\":1298:1544   */\n    tag_21:\n        /* \"#utility.yul\":1379:1380   */\n      0x00\n        /* \"#utility.yul\":1389:1502   */\n    tag_41:\n        /* \"#utility.yul\":1403:1409   */\n      dup4\n        /* \"#utility.yul\":1400:1401   */\n      dup2\n        /* \"#utility.yul\":1397:1410   */\n      lt\n        /* \"#utility.yul\":1389:1502   */\n      iszero\n      tag_43\n      jumpi\n        /* \"#utility.yul\":1488:1489   */\n      dup1\n        /* \"#utility.yul\":1483:1486   */\n      dup3\n        /* \"#utility.yul\":1479:1490   */\n      add\n        /* \"#utility.yul\":1473:1491   */\n      mload\n        /* \"#utility.yul\":1469:1470   */\n      dup2\n        /* \"#utility.yul\":1464:1467   */\n      dup5\n        /* \"#utility.yul\":1460:1471   */\n      add\n        /* \"#utility.yul\":1453:1492   */\n      mstore\n        /* \"#utility.yul\":1425:1427   */\n      0x20\n        /* \"#utility.yul\":1422:1423   */\n      dup2\n        /* \"#utility.yul\":1418:1428   */\n      add\n        /* \"#utility.yul\":1413:1428   */\n      swap1\n      pop\n        /* \"#utility.yul\":1389:1502   */\n      jump(tag_41)\n    tag_43:\n        /* \"#utility.yul\":1536:1537   */\n      0x00\n        /* \"#utility.yul\":1527:1533   */\n      dup5\n        /* \"#utility.yul\":1522:1525   */\n      dup5\n        /* \"#utility.yul\":1518:1534   */\n      add\n        /* \"#utility.yul\":1511:1538   */\n      mstore\n        /* \"#utility.yul\":1360:1544   */\n      pop\n        /* \"#utility.yul\":1298:1544   */\n      pop\n      pop\n      pop\n      jump\t// out\n        /* \"#utility.yul\":1550:1652   */\n    tag_22:\n        /* \"#utility.yul\":1591:1597   */\n      0x00\n        /* \"#utility.yul\":1642:1644   */\n      0x1f\n        /* \"#utility.yul\":1638:1645   */\n      not\n        /* \"#utility.yul\":1633:1635   */\n      0x1f\n        /* \"#utility.yul\":1626:1631   */\n      dup4\n        /* \"#utility.yul\":1622:1636   */\n      add\n        /* \"#utility.yul\":1618:1646   */\n      and\n        /* \"#utility.yul\":1608:1646   */\n      swap1\n      pop\n        /* \"#utility.yul\":1550:1652   */\n      swap2\n      swap1\n      pop\n      jump\t// out\n        /* \"#utility.yul\":1658:2035   */\n    tag_23:\n        /* \"#utility.yul\":1746:1749   */\n      0x00\n        /* \"#utility.yul\":1774:1813   */\n      tag_46\n        /* \"#utility.yul\":1807:1812   */\n      dup3\n        /* \"#utility.yul\":1774:1813   */\n      tag_19\n      jump\t// in\n    tag_46:\n        /* \"#utility.yul\":1829:1900   */\n      tag_47\n        /* \"#utility.yul\":1893:1899   */\n      dup2\n        /* \"#utility.yul\":1888:1891   */\n      dup6\n        /* \"#utility.yul\":1829:1900   */\n      tag_20\n      jump\t// in\n    tag_47:\n        /* \"#utility.yul\":1822:1900   */\n      swap4\n      pop\n        /* \"#utility.yul\":1909:1974   */\n      tag_48\n        /* \"#utility.yul\":1967:1973   */\n      dup2\n        /* \"#utility.yul\":1962:1965   */\n      dup6\n        /* \"#utility.yul\":1955:1959   */\n      0x20\n        /* \"#utility.yul\":1948:1953   */\n      dup7\n        /* \"#utility.yul\":1944:1960   */\n      add\n        /* \"#utility.yul\":1909:1974   */\n      tag_21\n      jump\t// in\n    tag_48:\n        /* \"#utility.yul\":1999:2028   */\n      tag_49\n        /* \"#utility.yul\":2021:2027   */\n      dup2\n        /* \"#utility.yul\":1999:2028   */\n      tag_22\n      jump\t// in\n    tag_49:\n        /* \"#utility.yul\":1994:1997   */\n      dup5\n        /* \"#utility.yul\":1990:2029   */\n      add\n        /* \"#utility.yul\":1983:2029   */\n      swap2\n      pop\n        /* \"#utility.yul\":1750:2035   */\n      pop\n        /* \"#utility.yul\":1658:2035   */\n      swap3\n      swap2\n      pop\n      pop\n      jump\t// out\n        /* \"#utility.yul\":2041:2354   */\n    tag_9:\n        /* \"#utility.yul\":2154:2158   */\n      0x00\n        /* \"#utility.yul\":2192:2194   */\n      0x20\n        /* \"#utility.yul\":2181:2190   */\n      dup3\n        /* \"#utility.yul\":2177:2195   */\n      add\n        /* \"#utility.yul\":2169:2195   */\n      swap1\n      pop\n        /* \"#utility.yul\":2241:2250   */\n      dup2\n        /* \"#utility.yul\":2235:2239   */\n      dup2\n        /* \"#utility.yul\":2231:2251   */\n      sub\n        /* \"#utility.yul\":2227:2228   */\n      0x00\n        /* \"#utility.yul\":2216:2225   */\n      dup4\n        /* \"#utility.yul\":2212:2229   */\n      add\n        /* \"#utility.yul\":2205:2252   */\n      mstore\n        /* \"#utility.yul\":2269:2347   */\n      tag_51\n        /* \"#utility.yul\":2342:2346   */\n      dup2\n        /* \"#utility.yul\":2333:2339   */\n      dup5\n        /* \"#utility.yul\":2269:2347   */\n      tag_23\n      jump\t// in\n    tag_51:\n        /* \"#utility.yul\":2261:2347   */\n      swap1\n      pop\n        /* \"#utility.yul\":2041:2354   */\n      swap3\n      swap2\n      pop\n      pop\n      jump\t// out\n\n    auxdata: 0xa2646970667358221220ab1bb3b73d818b62a429e7e2e7b06da3687fd1e84f57af773722433700a50f9964736f6c63430008180033\n}\n",
				"bytecode": {
					"linkReferences": {},
					"object": "608060405234801561000f575f80fd5b506102268061001d5f395ff3fe608060405234801561000f575f80fd5b5060043610610029575f3560e01c8063fa6484bd1461002d575b5f80fd5b6100476004803603810190610042919061011b565b61005d565b60405161005491906101d0565b60405180910390f35b60606001808316036100a6576040518060400160405280600381526020017f4f4444000000000000000000000000000000000000000000000000000000000081525090506100df565b6040518060400160405280600481526020017f4556454e0000000000000000000000000000000000000000000000000000000081525090505b919050565b5f80fd5b5f819050919050565b6100fa816100e8565b8114610104575f80fd5b50565b5f81359050610115816100f1565b92915050565b5f602082840312156101305761012f6100e4565b5b5f61013d84828501610107565b91505092915050565b5f81519050919050565b5f82825260208201905092915050565b5f5b8381101561017d578082015181840152602081019050610162565b5f8484015250505050565b5f601f19601f8301169050919050565b5f6101a282610146565b6101ac8185610150565b93506101bc818560208601610160565b6101c581610188565b840191505092915050565b5f6020820190508181035f8301526101e88184610198565b90509291505056fea2646970667358221220ab1bb3b73d818b62a429e7e2e7b06da3687fd1e84f57af773722433700a50f9964736f6c63430008180033",
					"opcodes": "PUSH1 0x80 PUSH1 0x40 MSTORE CALLVALUE DUP1 ISZERO PUSH2 0xF JUMPI PUSH0 DUP1 REVERT JUMPDEST POP PUSH2 0x226 DUP1 PUSH2 0x1D PUSH0 CODECOPY PUSH0 RETURN INVALID PUSH1 0x80 PUSH1 0x40 MSTORE CALLVALUE DUP1 ISZERO PUSH2 0xF JUMPI PUSH0 DUP1 REVERT JUMPDEST POP PUSH1 0x4 CALLDATASIZE LT PUSH2 0x29 JUMPI PUSH0 CALLDATALOAD PUSH1 0xE0 SHR DUP1 PUSH4 0xFA6484BD EQ PUSH2 0x2D JUMPI JUMPDEST PUSH0 DUP1 REVERT JUMPDEST PUSH2 0x47 PUSH1 0x4 DUP1 CALLDATASIZE SUB DUP2 ADD SWAP1 PUSH2 0x42 SWAP2 SWAP1 PUSH2 0x11B JUMP JUMPDEST PUSH2 0x5D JUMP JUMPDEST PUSH1 0x40 MLOAD PUSH2 0x54 SWAP2 SWAP1 PUSH2 0x1D0 JUMP JUMPDEST PUSH1 0x40 MLOAD DUP1 SWAP2 SUB SWAP1 RETURN JUMPDEST PUSH1 0x60 PUSH1 0x1 DUP1 DUP4 AND SUB PUSH2 0xA6 JUMPI PUSH1 0x40 MLOAD DUP1 PUSH1 0x40 ADD PUSH1 0x40 MSTORE DUP1 PUSH1 0x3 DUP2 MSTORE PUSH1 0x20 ADD PUSH32 0x4F44440000000000000000000000000000000000000000000000000000000000 DUP2 MSTORE POP SWAP1 POP PUSH2 0xDF JUMP JUMPDEST PUSH1 0x40 MLOAD DUP1 PUSH1 0x40 ADD PUSH1 0x40 MSTORE DUP1 PUSH1 0x4 DUP2 MSTORE PUSH1 0x20 ADD PUSH32 0x4556454E00000000000000000000000000000000000000000000000000000000 DUP2 MSTORE POP SWAP1 POP JUMPDEST SWAP2 SWAP1 POP JUMP JUMPDEST PUSH0 DUP1 REVERT JUMPDEST PUSH0 DUP2 SWAP1 POP SWAP2 SWAP1 POP JUMP JUMPDEST PUSH2 0xFA DUP2 PUSH2 0xE8 JUMP JUMPDEST DUP2 EQ PUSH2 0x104 JUMPI PUSH0 DUP1 REVERT JUMPDEST POP JUMP JUMPDEST PUSH0 DUP2 CALLDATALOAD SWAP1 POP PUSH2 0x115 DUP2 PUSH2 0xF1 JUMP JUMPDEST SWAP3 SWAP2 POP POP JUMP JUMPDEST PUSH0 PUSH1 0x20 DUP3 DUP5 SUB SLT ISZERO PUSH2 0x130 JUMPI PUSH2 0x12F PUSH2 0xE4 JUMP JUMPDEST JUMPDEST PUSH0 PUSH2 0x13D DUP5 DUP3 DUP6 ADD PUSH2 0x107 JUMP JUMPDEST SWAP2 POP POP SWAP3 SWAP2 POP POP JUMP JUMPDEST PUSH0 DUP2 MLOAD SWAP1 POP SWAP2 SWAP1 POP JUMP JUMPDEST PUSH0 DUP3 DUP3 MSTORE PUSH1 0x20 DUP3 ADD SWAP1 POP SWAP3 SWAP2 POP POP JUMP JUMPDEST PUSH0 JUMPDEST DUP4 DUP2 LT ISZERO PUSH2 0x17D JUMPI DUP1 DUP3 ADD MLOAD DUP2 DUP5 ADD MSTORE PUSH1 0x20 DUP2 ADD SWAP1 POP PUSH2 0x162 JUMP JUMPDEST PUSH0 DUP5 DUP5 ADD MSTORE POP POP POP POP JUMP JUMPDEST PUSH0 PUSH1 0x1F NOT PUSH1 0x1F DUP4 ADD AND SWAP1 POP SWAP2 SWAP1 POP JUMP JUMPDEST PUSH0 PUSH2 0x1A2 DUP3 PUSH2 0x146 JUMP JUMPDEST PUSH2 0x1AC DUP2 DUP6 PUSH2 0x150 JUMP JUMPDEST SWAP4 POP PUSH2 0x1BC DUP2 DUP6 PUSH1 0x20 DUP7 ADD PUSH2 0x160 JUMP JUMPDEST PUSH2 0x1C5 DUP2 PUSH2 0x188 JUMP JUMPDEST DUP5 ADD SWAP2 POP POP SWAP3 SWAP2 POP POP JUMP JUMPDEST PUSH0 PUSH1 0x20 DUP3 ADD SWAP1 POP DUP2 DUP2 SUB PUSH0 DUP4 ADD MSTORE PUSH2 0x1E8 DUP2 DUP5 PUSH2 0x198 JUMP JUMPDEST SWAP1 POP SWAP3 SWAP2 POP POP JUMP INVALID LOG2 PUSH5 0x6970667358 0x22 SLT KECCAK256 0xAB SHL 0xB3 0xB7 RETURNDATASIZE DUP2 DUP12 PUSH3 0xA429E7 0xE2 0xE7 0xB0 PUSH14 0xA3687FD1E84F57AF773722433700 0xA5 0xF SWAP10 PUSH5 0x736F6C6343 STOP ADDMOD XOR STOP CALLER "
				},
				"gasEstimates": {
					"creation": {
						"codeDepositCost": "110000",
						"executionCost": "157",
						"totalCost": "110157"
					},
					"external": {
						"Check(int256)": "infinite"
					}
				},
				"methodIdentifiers": {
					"Check(int256)": "fa6484bd"
				}
			},
			"storageLayout": {
				"storage": [],
				"types": null
			},
			"userdoc": {
				"kind": "user",
				"methods": {},
				"version": 1
			}
		}
	}
}