{
	"data": {
		"bytecode": {
			"linkReferences": {},
			"object": "608060405234801561000f575f80fd5b506107f78061001d5f395ff3fe608060405234801561000f575f80fd5b5060043610610034575f3560e01c8063400db99c14610038578063ce42ebcd14610069575b5f80fd5b610052600480360381019061004d919061022d565b610099565b6040516100609291906102fa565b60405180910390f35b610083600480360381019061007e919061047e565b61014d565b60405161009091906104d8565b60405180910390f35b5f81815481106100a7575f80fd5b905f5260205f2090600202015f91509050805f0180546100c690610525565b80601f01602080910402602001604051908101604052809291908181526020018280546100f290610525565b801561013d5780601f106101145761010080835404028352916020019161013d565b820191905f5260205f20905b81548152906001019060200180831161012057829003601f168201915b5050505050908060010154905082565b60605f604051806040016040528085815260200184815250908060018154018082558091505060019003905f5260205f2090600202015f909190919091505f820151815f01908161019e91906106f2565b506020820151816001015550506040518060400160405280601581526020017f5375636365737366756c6c792061646465642e2e2e0000000000000000000000815250905092915050565b5f604051905090565b5f80fd5b5f80fd5b5f819050919050565b61020c816101fa565b8114610216575f80fd5b50565b5f8135905061022781610203565b92915050565b5f60208284031215610242576102416101f2565b5b5f61024f84828501610219565b91505092915050565b5f81519050919050565b5f82825260208201905092915050565b5f5b8381101561028f578082015181840152602081019050610274565b5f8484015250505050565b5f601f19601f8301169050919050565b5f6102b482610258565b6102be8185610262565b93506102ce818560208601610272565b6102d78161029a565b840191505092915050565b5f819050919050565b6102f4816102e2565b82525050565b5f6040820190508181035f83015261031281856102aa565b905061032160208301846102eb565b9392505050565b5f80fd5b5f80fd5b7f4e487b71000000000000000000000000000000000000000000000000000000005f52604160045260245ffd5b6103668261029a565b810181811067ffffffffffffffff8211171561038557610384610330565b5b80604052505050565b5f6103976101e9565b90506103a3828261035d565b919050565b5f67ffffffffffffffff8211156103c2576103c1610330565b5b6103cb8261029a565b9050602081019050919050565b828183375f83830152505050565b5f6103f86103f3846103a8565b61038e565b9050828152602081018484840111156104145761041361032c565b5b61041f8482856103d8565b509392505050565b5f82601f83011261043b5761043a610328565b5b813561044b8482602086016103e6565b91505092915050565b61045d816102e2565b8114610467575f80fd5b50565b5f8135905061047881610454565b92915050565b5f8060408385031215610494576104936101f2565b5b5f83013567ffffffffffffffff8111156104b1576104b06101f6565b5b6104bd85828601610427565b92505060206104ce8582860161046a565b9150509250929050565b5f6020820190508181035f8301526104f081846102aa565b905092915050565b7f4e487b71000000000000000000000000000000000000000000000000000000005f52602260045260245ffd5b5f600282049050600182168061053c57607f821691505b60208210810361054f5761054e6104f8565b5b50919050565b5f819050815f5260205f209050919050565b5f6020601f8301049050919050565b5f82821b905092915050565b5f600883026105b17fffffffffffffffffffffffffffffffffffffffffffffffffffffffffffffffff82610576565b6105bb8683610576565b95508019841693508086168417925050509392505050565b5f819050919050565b5f6105f66105f16105ec846101fa565b6105d3565b6101fa565b9050919050565b5f819050919050565b61060f836105dc565b61062361061b826105fd565b848454610582565b825550505050565b5f90565b61063761062b565b610642818484610606565b505050565b5b818110156106655761065a5f8261062f565b600181019050610648565b5050565b601f8211156106aa5761067b81610555565b61068484610567565b81016020851015610693578190505b6106a761069f85610567565b830182610647565b50505b505050565b5f82821c905092915050565b5f6106ca5f19846008026106af565b1980831691505092915050565b5f6106e283836106bb565b9150826002028217905092915050565b6106fb82610258565b67ffffffffffffffff81111561071457610713610330565b5b61071e8254610525565b610729828285610669565b5f60209050601f83116001811461075a575f8415610748578287015190505b61075285826106d7565b8655506107b9565b601f19841661076886610555565b5f5b8281101561078f5784890151825560018201915060208501945060208101905061076a565b868310156107ac57848901516107a8601f8916826106bb565b8355505b6001600288020188555050505b50505050505056fea26469706673582212200351b82ba6d73a2d82b0cf5ace49ad9085dd0d476b3281e9ae393328fbed0b1564736f6c63430008180033",
			"opcodes": "PUSH1 0x80 PUSH1 0x40 MSTORE CALLVALUE DUP1 ISZERO PUSH2 0xF JUMPI PUSH0 DUP1 REVERT JUMPDEST POP PUSH2 0x7F7 DUP1 PUSH2 0x1D PUSH0 CODECOPY PUSH0 RETURN INVALID PUSH1 0x80 PUSH1 0x40 MSTORE CALLVALUE DUP1 ISZERO PUSH2 0xF JUMPI PUSH0 DUP1 REVERT JUMPDEST POP PUSH1 0x4 CALLDATASIZE LT PUSH2 0x34 JUMPI PUSH0 CALLDATALOAD PUSH1 0xE0 SHR DUP1 PUSH4 0x400DB99C EQ PUSH2 0x38 JUMPI DUP1 PUSH4 0xCE42EBCD EQ PUSH2 0x69 JUMPI JUMPDEST PUSH0 DUP1 REVERT JUMPDEST PUSH2 0x52 PUSH1 0x4 DUP1 CALLDATASIZE SUB DUP2 ADD SWAP1 PUSH2 0x4D SWAP2 SWAP1 PUSH2 0x22D JUMP JUMPDEST PUSH2 0x99 JUMP JUMPDEST PUSH1 0x40 MLOAD PUSH2 0x60 SWAP3 SWAP2 SWAP1 PUSH2 0x2FA JUMP JUMPDEST PUSH1 0x40 MLOAD DUP1 SWAP2 SUB SWAP1 RETURN JUMPDEST PUSH2 0x83 PUSH1 0x4 DUP1 CALLDATASIZE SUB DUP2 ADD SWAP1 PUSH2 0x7E SWAP2 SWAP1 PUSH2 0x47E JUMP JUMPDEST PUSH2 0x14D JUMP JUMPDEST PUSH1 0x40 MLOAD PUSH2 0x90 SWAP2 SWAP1 PUSH2 0x4D8 JUMP JUMPDEST PUSH1 0x40 MLOAD DUP1 SWAP2 SUB SWAP1 RETURN JUMPDEST PUSH0 DUP2 DUP2 SLOAD DUP2 LT PUSH2 0xA7 JUMPI PUSH0 DUP1 REVERT JUMPDEST SWAP1 PUSH0 MSTORE PUSH1 0x20 PUSH0 KECCAK256 SWAP1 PUSH1 0x2 MUL ADD PUSH0 SWAP2 POP SWAP1 POP DUP1 PUSH0 ADD DUP1 SLOAD PUSH2 0xC6 SWAP1 PUSH2 0x525 JUMP JUMPDEST DUP1 PUSH1 0x1F ADD PUSH1 0x20 DUP1 SWAP2 DIV MUL PUSH1 0x20 ADD PUSH1 0x40 MLOAD SWAP1 DUP2 ADD PUSH1 0x40 MSTORE DUP1 SWAP3 SWAP2 SWAP1 DUP2 DUP2 MSTORE PUSH1 0x20 ADD DUP3 DUP1 SLOAD PUSH2 0xF2 SWAP1 PUSH2 0x525 JUMP JUMPDEST DUP1 ISZERO PUSH2 0x13D JUMPI DUP1 PUSH1 0x1F LT PUSH2 0x114 JUMPI PUSH2 0x100 DUP1 DUP4 SLOAD DIV MUL DUP4 MSTORE SWAP2 PUSH1 0x20 ADD SWAP2 PUSH2 0x13D JUMP JUMPDEST DUP3 ADD SWAP2 SWAP1 PUSH0 MSTORE PUSH1 0x20 PUSH0 KECCAK256 SWAP1 JUMPDEST DUP2 SLOAD DUP2 MSTORE SWAP1 PUSH1 0x1 ADD SWAP1 PUSH1 0x20 ADD DUP1 DUP4 GT PUSH2 0x120 JUMPI DUP3 SWAP1 SUB PUSH1 0x1F AND DUP3 ADD SWAP2 JUMPDEST POP POP POP POP POP SWAP1 DUP1 PUSH1 0x1 ADD SLOAD SWAP1 POP DUP3 JUMP JUMPDEST PUSH1 0x60 PUSH0 PUSH1 0x40 MLOAD DUP1 PUSH1 0x40 ADD PUSH1 0x40 MSTORE DUP1 DUP6 DUP2 MSTORE PUSH1 0x20 ADD DUP5 DUP2 MSTORE POP SWAP1 DUP1 PUSH1 0x1 DUP2 SLOAD ADD DUP1 DUP3 SSTORE DUP1 SWAP2 POP POP PUSH1 0x1 SWAP1 SUB SWAP1 PUSH0 MSTORE PUSH1 0x20 PUSH0 KECCAK256 SWAP1 PUSH1 0x2 MUL ADD PUSH0 SWAP1 SWAP2 SWAP1 SWAP2 SWAP1 SWAP2 POP PUSH0 DUP3 ADD MLOAD DUP2 PUSH0 ADD SWAP1 DUP2 PUSH2 0x19E SWAP2 SWAP1 PUSH2 0x6F2 JUMP JUMPDEST POP PUSH1 0x20 DUP3 ADD MLOAD DUP2 PUSH1 0x1 ADD SSTORE POP POP PUSH1 0x40 MLOAD DUP1 PUSH1 0x40 ADD PUSH1 0x40 MSTORE DUP1 PUSH1 0x15 DUP2 MSTORE PUSH1 0x20 ADD PUSH32 0x5375636365737366756C6C792061646465642E2E2E0000000000000000000000 DUP2 MSTORE POP SWAP1 POP SWAP3 SWAP2 POP POP JUMP JUMPDEST PUSH0 PUSH1 0x40 MLOAD SWAP1 POP SWAP1 JUMP JUMPDEST PUSH0 DUP1 REVERT JUMPDEST PUSH0 DUP1 REVERT JUMPDEST PUSH0 DUP2 SWAP1 POP SWAP2 SWAP1 POP JUMP JUMPDEST PUSH2 0x20C DUP2 PUSH2 0x1FA JUMP JUMPDEST DUP2 EQ PUSH2 0x216 JUMPI PUSH0 DUP1 REVERT JUMPDEST POP JUMP JUMPDEST PUSH0 DUP2 CALLDATALOAD SWAP1 POP PUSH2 0x227 DUP2 PUSH2 0x203 JUMP JUMPDEST SWAP3 SWAP2 POP POP JUMP JUMPDEST PUSH0 PUSH1 0x20 DUP3 DUP5 SUB SLT ISZERO PUSH2 0x242 JUMPI PUSH2 0x241 PUSH2 0x1F2 JUMP JUMPDEST JUMPDEST PUSH0 PUSH2 0x24F DUP5 DUP3 DUP6 ADD PUSH2 0x219 JUMP JUMPDEST SWAP2 POP POP SWAP3 SWAP2 POP POP JUMP JUMPDEST PUSH0 DUP2 MLOAD SWAP1 POP SWAP2 SWAP1 POP JUMP JUMPDEST PUSH0 DUP3 DUP3 MSTORE PUSH1 0x20 DUP3 ADD SWAP1 POP SWAP3 SWAP2 POP POP JUMP JUMPDEST PUSH0 JUMPDEST DUP4 DUP2 LT ISZERO PUSH2 0x28F JUMPI DUP1 DUP3 ADD MLOAD DUP2 DUP5 ADD MSTORE PUSH1 0x20 DUP2 ADD SWAP1 POP PUSH2 0x274 JUMP JUMPDEST PUSH0 DUP5 DUP5 ADD MSTORE POP POP POP POP JUMP JUMPDEST PUSH0 PUSH1 0x1F NOT PUSH1 0x1F DUP4 ADD AND SWAP1 POP SWAP2 SWAP1 POP JUMP JUMPDEST PUSH0 PUSH2 0x2B4 DUP3 PUSH2 0x258 JUMP JUMPDEST PUSH2 0x2BE DUP2 DUP6 PUSH2 0x262 JUMP JUMPDEST SWAP4 POP PUSH2 0x2CE DUP2 DUP6 PUSH1 0x20 DUP7 ADD PUSH2 0x272 JUMP JUMPDEST PUSH2 0x2D7 DUP2 PUSH2 0x29A JUMP JUMPDEST DUP5 ADD SWAP2 POP POP SWAP3 SWAP2 POP POP JUMP JUMPDEST PUSH0 DUP2 SWAP1 POP SWAP2 SWAP1 POP JUMP JUMPDEST PUSH2 0x2F4 DUP2 PUSH2 0x2E2 JUMP JUMPDEST DUP3 MSTORE POP POP JUMP JUMPDEST PUSH0 PUSH1 0x40 DUP3 ADD SWAP1 POP DUP2 DUP2 SUB PUSH0 DUP4 ADD MSTORE PUSH2 0x312 DUP2 DUP6 PUSH2 0x2AA JUMP JUMPDEST SWAP1 POP PUSH2 0x321 PUSH1 0x20 DUP4 ADD DUP5 PUSH2 0x2EB JUMP JUMPDEST SWAP4 SWAP3 POP POP POP JUMP JUMPDEST PUSH0 DUP1 REVERT JUMPDEST PUSH0 DUP1 REVERT JUMPDEST PUSH32 0x4E487B7100000000000000000000000000000000000000000000000000000000 PUSH0 MSTORE PUSH1 0x41 PUSH1 0x4 MSTORE PUSH1 0x24 PUSH0 REVERT JUMPDEST PUSH2 0x366 DUP3 PUSH2 0x29A JUMP JUMPDEST DUP2 ADD DUP2 DUP2 LT PUSH8 0xFFFFFFFFFFFFFFFF DUP3 GT OR ISZERO PUSH2 0x385 JUMPI PUSH2 0x384 PUSH2 0x330 JUMP JUMPDEST JUMPDEST DUP1 PUSH1 0x40 MSTORE POP POP POP JUMP JUMPDEST PUSH0 PUSH2 0x397 PUSH2 0x1E9 JUMP JUMPDEST SWAP1 POP PUSH2 0x3A3 DUP3 DUP3 PUSH2 0x35D JUMP JUMPDEST SWAP2 SWAP1 POP JUMP JUMPDEST PUSH0 PUSH8 0xFFFFFFFFFFFFFFFF DUP3 GT ISZERO PUSH2 0x3C2 JUMPI PUSH2 0x3C1 PUSH2 0x330 JUMP JUMPDEST JUMPDEST PUSH2 0x3CB DUP3 PUSH2 0x29A JUMP JUMPDEST SWAP1 POP PUSH1 0x20 DUP2 ADD SWAP1 POP SWAP2 SWAP1 POP JUMP JUMPDEST DUP3 DUP2 DUP4 CALLDATACOPY PUSH0 DUP4 DUP4 ADD MSTORE POP POP POP JUMP JUMPDEST PUSH0 PUSH2 0x3F8 PUSH2 0x3F3 DUP5 PUSH2 0x3A8 JUMP JUMPDEST PUSH2 0x38E JUMP JUMPDEST SWAP1 POP DUP3 DUP2 MSTORE PUSH1 0x20 DUP2 ADD DUP5 DUP5 DUP5 ADD GT ISZERO PUSH2 0x414 JUMPI PUSH2 0x413 PUSH2 0x32C JUMP JUMPDEST JUMPDEST PUSH2 0x41F DUP5 DUP3 DUP6 PUSH2 0x3D8 JUMP JUMPDEST POP SWAP4 SWAP3 POP POP POP JUMP JUMPDEST PUSH0 DUP3 PUSH1 0x1F DUP4 ADD SLT PUSH2 0x43B JUMPI PUSH2 0x43A PUSH2 0x328 JUMP JUMPDEST JUMPDEST DUP2 CALLDATALOAD PUSH2 0x44B DUP5 DUP3 PUSH1 0x20 DUP7 ADD PUSH2 0x3E6 JUMP JUMPDEST SWAP2 POP POP SWAP3 SWAP2 POP POP JUMP JUMPDEST PUSH2 0x45D DUP2 PUSH2 0x2E2 JUMP JUMPDEST DUP2 EQ PUSH2 0x467 JUMPI PUSH0 DUP1 REVERT JUMPDEST POP JUMP JUMPDEST PUSH0 DUP2 CALLDATALOAD SWAP1 POP PUSH2 0x478 DUP2 PUSH2 0x454 JUMP JUMPDEST SWAP3 SWAP2 POP POP JUMP JUMPDEST PUSH0 DUP1 PUSH1 0x40 DUP4 DUP6 SUB SLT ISZERO PUSH2 0x494 JUMPI PUSH2 0x493 PUSH2 0x1F2 JUMP JUMPDEST JUMPDEST PUSH0 DUP4 ADD CALLDATALOAD PUSH8 0xFFFFFFFFFFFFFFFF DUP2 GT ISZERO PUSH2 0x4B1 JUMPI PUSH2 0x4B0 PUSH2 0x1F6 JUMP JUMPDEST JUMPDEST PUSH2 0x4BD DUP6 DUP3 DUP7 ADD PUSH2 0x427 JUMP JUMPDEST SWAP3 POP POP PUSH1 0x20 PUSH2 0x4CE DUP6 DUP3 DUP7 ADD PUSH2 0x46A JUMP JUMPDEST SWAP2 POP POP SWAP3 POP SWAP3 SWAP1 POP JUMP JUMPDEST PUSH0 PUSH1 0x20 DUP3 ADD SWAP1 POP DUP2 DUP2 SUB PUSH0 DUP4 ADD MSTORE PUSH2 0x4F0 DUP2 DUP5 PUSH2 0x2AA JUMP JUMPDEST SWAP1 POP SWAP3 SWAP2 POP POP JUMP JUMPDEST PUSH32 0x4E487B7100000000000000000000000000000000000000000000000000000000 PUSH0 MSTORE PUSH1 0x22 PUSH1 0x4 MSTORE PUSH1 0x24 PUSH0 REVERT JUMPDEST PUSH0 PUSH1 0x2 DUP3 DIV SWAP1 POP PUSH1 0x1 DUP3 AND DUP1 PUSH2 0x53C JUMPI PUSH1 0x7F DUP3 AND SWAP2 POP JUMPDEST PUSH1 0x20 DUP3 LT DUP2 SUB PUSH2 0x54F JUMPI PUSH2 0x54E PUSH2 0x4F8 JUMP JUMPDEST JUMPDEST POP SWAP2 SWAP1 POP JUMP JUMPDEST PUSH0 DUP2 SWAP1 POP DUP2 PUSH0 MSTORE PUSH1 0x20 PUSH0 KECCAK256 SWAP1 POP SWAP2 SWAP1 POP JUMP JUMPDEST PUSH0 PUSH1 0x20 PUSH1 0x1F DUP4 ADD DIV SWAP1 POP SWAP2 SWAP1 POP JUMP JUMPDEST PUSH0 DUP3 DUP3 SHL SWAP1 POP SWAP3 SWAP2 POP POP JUMP JUMPDEST PUSH0 PUSH1 0x8 DUP4 MUL PUSH2 0x5B1 PUSH32 0xFFFFFFFFFFFFFFFFFFFFFFFFFFFFFFFFFFFFFFFFFFFFFFFFFFFFFFFFFFFFFFFF DUP3 PUSH2 0x576 JUMP JUMPDEST PUSH2 0x5BB DUP7 DUP4 PUSH2 0x576 JUMP JUMPDEST SWAP6 POP DUP1 NOT DUP5 AND SWAP4 POP DUP1 DUP7 AND DUP5 OR SWAP3 POP POP POP SWAP4 SWAP3 POP POP POP JUMP JUMPDEST PUSH0 DUP2 SWAP1 POP SWAP2 SWAP1 POP JUMP JUMPDEST PUSH0 PUSH2 0x5F6 PUSH2 0x5F1 PUSH2 0x5EC DUP5 PUSH2 0x1FA JUMP JUMPDEST PUSH2 0x5D3 JUMP JUMPDEST PUSH2 0x1FA JUMP JUMPDEST SWAP1 POP SWAP2 SWAP1 POP JUMP JUMPDEST PUSH0 DUP2 SWAP1 POP SWAP2 SWAP1 POP JUMP JUMPDEST PUSH2 0x60F DUP4 PUSH2 0x5DC JUMP JUMPDEST PUSH2 0x623 PUSH2 0x61B DUP3 PUSH2 0x5FD JUMP JUMPDEST DUP5 DUP5 SLOAD PUSH2 0x582 JUMP JUMPDEST DUP3 SSTORE POP POP POP POP JUMP JUMPDEST PUSH0 SWAP1 JUMP JUMPDEST PUSH2 0x637 PUSH2 0x62B JUMP JUMPDEST PUSH2 0x642 DUP2 DUP5 DUP5 PUSH2 0x606 JUMP JUMPDEST POP POP POP JUMP JUMPDEST JUMPDEST DUP2 DUP2 LT ISZERO PUSH2 0x665 JUMPI PUSH2 0x65A PUSH0 DUP3 PUSH2 0x62F JUMP JUMPDEST PUSH1 0x1 DUP2 ADD SWAP1 POP PUSH2 0x648 JUMP JUMPDEST POP POP JUMP JUMPDEST PUSH1 0x1F DUP3 GT ISZERO PUSH2 0x6AA JUMPI PUSH2 0x67B DUP2 PUSH2 0x555 JUMP JUMPDEST PUSH2 0x684 DUP5 PUSH2 0x567 JUMP JUMPDEST DUP2 ADD PUSH1 0x20 DUP6 LT ISZERO PUSH2 0x693 JUMPI DUP2 SWAP1 POP JUMPDEST PUSH2 0x6A7 PUSH2 0x69F DUP6 PUSH2 0x567 JUMP JUMPDEST DUP4 ADD DUP3 PUSH2 0x647 JUMP JUMPDEST POP POP JUMPDEST POP POP POP JUMP JUMPDEST PUSH0 DUP3 DUP3 SHR SWAP1 POP SWAP3 SWAP2 POP POP JUMP JUMPDEST PUSH0 PUSH2 0x6CA PUSH0 NOT DUP5 PUSH1 0x8 MUL PUSH2 0x6AF JUMP JUMPDEST NOT DUP1 DUP4 AND SWAP2 POP POP SWAP3 SWAP2 POP POP JUMP JUMPDEST PUSH0 PUSH2 0x6E2 DUP4 DUP4 PUSH2 0x6BB JUMP JUMPDEST SWAP2 POP DUP3 PUSH1 0x2 MUL DUP3 OR SWAP1 POP SWAP3 SWAP2 POP POP JUMP JUMPDEST PUSH2 0x6FB DUP3 PUSH2 0x258 JUMP JUMPDEST PUSH8 0xFFFFFFFFFFFFFFFF DUP2 GT ISZERO PUSH2 0x714 JUMPI PUSH2 0x713 PUSH2 0x330 JUMP JUMPDEST JUMPDEST PUSH2 0x71E DUP3 SLOAD PUSH2 0x525 JUMP JUMPDEST PUSH2 0x729 DUP3 DUP3 DUP6 PUSH2 0x669 JUMP JUMPDEST PUSH0 PUSH1 0x20 SWAP1 POP PUSH1 0x1F DUP4 GT PUSH1 0x1 DUP2 EQ PUSH2 0x75A JUMPI PUSH0 DUP5 ISZERO PUSH2 0x748 JUMPI DUP3 DUP8 ADD MLOAD SWAP1 POP JUMPDEST PUSH2 0x752 DUP6 DUP3 PUSH2 0x6D7 JUMP JUMPDEST DUP7 SSTORE POP PUSH2 0x7B9 JUMP JUMPDEST PUSH1 0x1F NOT DUP5 AND PUSH2 0x768 DUP7 PUSH2 0x555 JUMP JUMPDEST PUSH0 JUMPDEST DUP3 DUP2 LT ISZERO PUSH2 0x78F JUMPI DUP5 DUP10 ADD MLOAD DUP3 SSTORE PUSH1 0x1 DUP3 ADD SWAP2 POP PUSH1 0x20 DUP6 ADD SWAP5 POP PUSH1 0x20 DUP2 ADD SWAP1 POP PUSH2 0x76A JUMP JUMPDEST DUP7 DUP4 LT ISZERO PUSH2 0x7AC JUMPI DUP5 DUP10 ADD MLOAD PUSH2 0x7A8 PUSH1 0x1F DUP10 AND DUP3 PUSH2 0x6BB JUMP JUMPDEST DUP4 SSTORE POP JUMPDEST PUSH1 0x1 PUSH1 0x2 DUP9 MUL ADD DUP9 SSTORE POP POP POP JUMPDEST POP POP POP POP POP POP JUMP INVALID LOG2 PUSH5 0x6970667358 0x22 SLT KECCAK256 SUB MLOAD 0xB8 0x2B 0xA6 0xD7 GASPRICE 0x2D DUP3 0xB0 0xCF GAS 0xCE BLOBHASH 0xAD SWAP1 DUP6 0xDD 0xD SELFBALANCE PUSH12 0x3281E9AE393328FBED0B1564 PUSH20 0x6F6C634300081800330000000000000000000000 "
		},
		"gasEstimates": {
			"creation": {
				"codeDepositCost": "407800",
				"executionCost": "441",
				"totalCost": "408241"
			},
			"external": {
				"StudentArray(uint256)": "infinite",
				"setData(string,int256)": "infinite"
			}
		},
		"methodIdentifiers": {
			"StudentArray(uint256)": "400db99c",
			"setData(string,int256)": "ce42ebcd"
		}
	},
	"abi": [
		{
			"inputs": [
				{
					"internalType": "uint256",
					"name": "",
					"type": "uint256"
				}
			],
			"name": "StudentArray",
			"outputs": [
				{
					"internalType": "string",
					"name": "name",
					"type": "string"
				},
				{
					"internalType": "int256",
					"name": "age",
					"type": "int256"
				}
			],
			"stateMutability": "view",
			"type": "function"
		},
		{
			"inputs": [
				{
					"internalType": "string",
					"name": "name",
					"type": "string"
				},
				{
					"internalType": "int256",
					"name": "age",
					"type": "int256"
				}
			],
			"name": "setData",
			"outputs": [
				{
					"internalType": "string",
					"name": "",
					"type": "string"
				}
			],
			"stateMutability": "nonpayable",
			"type": "function"
		}
	]
}