{
	"data": {
		"bytecode": {
			"linkReferences": {},
			"object": "608060405234801561000f575f80fd5b506108618061001d5f395ff3fe608060405234801561000f575f80fd5b506004361061003f575f3560e01c806331bad10f146100435780639021c08914610073578063e9f9730e146100a3575b5f80fd5b61005d600480360381019061005891906103b2565b6100d3565b60405161006a9190610473565b60405180910390f35b61008d60048036038101906100889190610493565b610185565b60405161009a9190610473565b60405180910390f35b6100bd60048036038101906100b891906103b2565b6101b8565b6040516100ca9190610473565b60405180910390f35b5f818051602081018201805184825260208301602085012081835280955050505050505f91509050805461010690610536565b80601f016020809104026020016040519081016040528092919081815260200182805461013290610536565b801561017d5780601f106101545761010080835404028352916020019161017d565b820191905f5260205f20905b81548152906001019060200180831161016057829003601f168201915b505050505081565b6060815f8460405161019791906105a0565b908152602001604051809103902090816101b1919061075c565b5092915050565b60605f826040516101c991906105a0565b908152602001604051809103902080546101e290610536565b80601f016020809104026020016040519081016040528092919081815260200182805461020e90610536565b80156102595780601f1061023057610100808354040283529160200191610259565b820191905f5260205f20905b81548152906001019060200180831161023c57829003601f168201915b50505050509050919050565b5f604051905090565b5f80fd5b5f80fd5b5f80fd5b5f80fd5b5f601f19601f8301169050919050565b7f4e487b71000000000000000000000000000000000000000000000000000000005f52604160045260245ffd5b6102c48261027e565b810181811067ffffffffffffffff821117156102e3576102e261028e565b5b80604052505050565b5f6102f5610265565b905061030182826102bb565b919050565b5f67ffffffffffffffff8211156103205761031f61028e565b5b6103298261027e565b9050602081019050919050565b828183375f83830152505050565b5f61035661035184610306565b6102ec565b9050828152602081018484840111156103725761037161027a565b5b61037d848285610336565b509392505050565b5f82601f83011261039957610398610276565b5b81356103a9848260208601610344565b91505092915050565b5f602082840312156103c7576103c661026e565b5b5f82013567ffffffffffffffff8111156103e4576103e3610272565b5b6103f084828501610385565b91505092915050565b5f81519050919050565b5f82825260208201905092915050565b5f5b83811015610430578082015181840152602081019050610415565b5f8484015250505050565b5f610445826103f9565b61044f8185610403565b935061045f818560208601610413565b6104688161027e565b840191505092915050565b5f6020820190508181035f83015261048b818461043b565b905092915050565b5f80604083850312156104a9576104a861026e565b5b5f83013567ffffffffffffffff8111156104c6576104c5610272565b5b6104d285828601610385565b925050602083013567ffffffffffffffff8111156104f3576104f2610272565b5b6104ff85828601610385565b9150509250929050565b7f4e487b71000000000000000000000000000000000000000000000000000000005f52602260045260245ffd5b5f600282049050600182168061054d57607f821691505b6020821081036105605761055f610509565b5b50919050565b5f81905092915050565b5f61057a826103f9565b6105848185610566565b9350610594818560208601610413565b80840191505092915050565b5f6105ab8284610570565b915081905092915050565b5f819050815f5260205f209050919050565b5f6020601f8301049050919050565b5f82821b905092915050565b5f600883026106127fffffffffffffffffffffffffffffffffffffffffffffffffffffffffffffffff826105d7565b61061c86836105d7565b95508019841693508086168417925050509392505050565b5f819050919050565b5f819050919050565b5f61066061065b61065684610634565b61063d565b610634565b9050919050565b5f819050919050565b61067983610646565b61068d61068582610667565b8484546105e3565b825550505050565b5f90565b6106a1610695565b6106ac818484610670565b505050565b5b818110156106cf576106c45f82610699565b6001810190506106b2565b5050565b601f821115610714576106e5816105b6565b6106ee846105c8565b810160208510156106fd578190505b610711610709856105c8565b8301826106b1565b50505b505050565b5f82821c905092915050565b5f6107345f1984600802610719565b1980831691505092915050565b5f61074c8383610725565b9150826002028217905092915050565b610765826103f9565b67ffffffffffffffff81111561077e5761077d61028e565b5b6107888254610536565b6107938282856106d3565b5f60209050601f8311600181146107c4575f84156107b2578287015190505b6107bc8582610741565b865550610823565b601f1984166107d2866105b6565b5f5b828110156107f9578489015182556001820191506020850194506020810190506107d4565b868310156108165784890151610812601f891682610725565b8355505b6001600288020188555050505b50505050505056fea26469706673582212206dc52b89c78c09e6708b500c45488150f3b088b5fd755d793633198a8bca618d64736f6c63430008180033",
			"opcodes": "PUSH1 0x80 PUSH1 0x40 MSTORE CALLVALUE DUP1 ISZERO PUSH2 0xF JUMPI PUSH0 DUP1 REVERT JUMPDEST POP PUSH2 0x861 DUP1 PUSH2 0x1D PUSH0 CODECOPY PUSH0 RETURN INVALID PUSH1 0x80 PUSH1 0x40 MSTORE CALLVALUE DUP1 ISZERO PUSH2 0xF JUMPI PUSH0 DUP1 REVERT JUMPDEST POP PUSH1 0x4 CALLDATASIZE LT PUSH2 0x3F JUMPI PUSH0 CALLDATALOAD PUSH1 0xE0 SHR DUP1 PUSH4 0x31BAD10F EQ PUSH2 0x43 JUMPI DUP1 PUSH4 0x9021C089 EQ PUSH2 0x73 JUMPI DUP1 PUSH4 0xE9F9730E EQ PUSH2 0xA3 JUMPI JUMPDEST PUSH0 DUP1 REVERT JUMPDEST PUSH2 0x5D PUSH1 0x4 DUP1 CALLDATASIZE SUB DUP2 ADD SWAP1 PUSH2 0x58 SWAP2 SWAP1 PUSH2 0x3B2 JUMP JUMPDEST PUSH2 0xD3 JUMP JUMPDEST PUSH1 0x40 MLOAD PUSH2 0x6A SWAP2 SWAP1 PUSH2 0x473 JUMP JUMPDEST PUSH1 0x40 MLOAD DUP1 SWAP2 SUB SWAP1 RETURN JUMPDEST PUSH2 0x8D PUSH1 0x4 DUP1 CALLDATASIZE SUB DUP2 ADD SWAP1 PUSH2 0x88 SWAP2 SWAP1 PUSH2 0x493 JUMP JUMPDEST PUSH2 0x185 JUMP JUMPDEST PUSH1 0x40 MLOAD PUSH2 0x9A SWAP2 SWAP1 PUSH2 0x473 JUMP JUMPDEST PUSH1 0x40 MLOAD DUP1 SWAP2 SUB SWAP1 RETURN JUMPDEST PUSH2 0xBD PUSH1 0x4 DUP1 CALLDATASIZE SUB DUP2 ADD SWAP1 PUSH2 0xB8 SWAP2 SWAP1 PUSH2 0x3B2 JUMP JUMPDEST PUSH2 0x1B8 JUMP JUMPDEST PUSH1 0x40 MLOAD PUSH2 0xCA SWAP2 SWAP1 PUSH2 0x473 JUMP JUMPDEST PUSH1 0x40 MLOAD DUP1 SWAP2 SUB SWAP1 RETURN JUMPDEST PUSH0 DUP2 DUP1 MLOAD PUSH1 0x20 DUP2 ADD DUP3 ADD DUP1 MLOAD DUP5 DUP3 MSTORE PUSH1 0x20 DUP4 ADD PUSH1 0x20 DUP6 ADD KECCAK256 DUP2 DUP4 MSTORE DUP1 SWAP6 POP POP POP POP POP POP PUSH0 SWAP2 POP SWAP1 POP DUP1 SLOAD PUSH2 0x106 SWAP1 PUSH2 0x536 JUMP JUMPDEST DUP1 PUSH1 0x1F ADD PUSH1 0x20 DUP1 SWAP2 DIV MUL PUSH1 0x20 ADD PUSH1 0x40 MLOAD SWAP1 DUP2 ADD PUSH1 0x40 MSTORE DUP1 SWAP3 SWAP2 SWAP1 DUP2 DUP2 MSTORE PUSH1 0x20 ADD DUP3 DUP1 SLOAD PUSH2 0x132 SWAP1 PUSH2 0x536 JUMP JUMPDEST DUP1 ISZERO PUSH2 0x17D JUMPI DUP1 PUSH1 0x1F LT PUSH2 0x154 JUMPI PUSH2 0x100 DUP1 DUP4 SLOAD DIV MUL DUP4 MSTORE SWAP2 PUSH1 0x20 ADD SWAP2 PUSH2 0x17D JUMP JUMPDEST DUP3 ADD SWAP2 SWAP1 PUSH0 MSTORE PUSH1 0x20 PUSH0 KECCAK256 SWAP1 JUMPDEST DUP2 SLOAD DUP2 MSTORE SWAP1 PUSH1 0x1 ADD SWAP1 PUSH1 0x20 ADD DUP1 DUP4 GT PUSH2 0x160 JUMPI DUP3 SWAP1 SUB PUSH1 0x1F AND DUP3 ADD SWAP2 JUMPDEST POP POP POP POP POP DUP2 JUMP JUMPDEST PUSH1 0x60 DUP2 PUSH0 DUP5 PUSH1 0x40 MLOAD PUSH2 0x197 SWAP2 SWAP1 PUSH2 0x5A0 JUMP JUMPDEST SWAP1 DUP2 MSTORE PUSH1 0x20 ADD PUSH1 0x40 MLOAD DUP1 SWAP2 SUB SWAP1 KECCAK256 SWAP1 DUP2 PUSH2 0x1B1 SWAP2 SWAP1 PUSH2 0x75C JUMP JUMPDEST POP SWAP3 SWAP2 POP POP JUMP JUMPDEST PUSH1 0x60 PUSH0 DUP3 PUSH1 0x40 MLOAD PUSH2 0x1C9 SWAP2 SWAP1 PUSH2 0x5A0 JUMP JUMPDEST SWAP1 DUP2 MSTORE PUSH1 0x20 ADD PUSH1 0x40 MLOAD DUP1 SWAP2 SUB SWAP1 KECCAK256 DUP1 SLOAD PUSH2 0x1E2 SWAP1 PUSH2 0x536 JUMP JUMPDEST DUP1 PUSH1 0x1F ADD PUSH1 0x20 DUP1 SWAP2 DIV MUL PUSH1 0x20 ADD PUSH1 0x40 MLOAD SWAP1 DUP2 ADD PUSH1 0x40 MSTORE DUP1 SWAP3 SWAP2 SWAP1 DUP2 DUP2 MSTORE PUSH1 0x20 ADD DUP3 DUP1 SLOAD PUSH2 0x20E SWAP1 PUSH2 0x536 JUMP JUMPDEST DUP1 ISZERO PUSH2 0x259 JUMPI DUP1 PUSH1 0x1F LT PUSH2 0x230 JUMPI PUSH2 0x100 DUP1 DUP4 SLOAD DIV MUL DUP4 MSTORE SWAP2 PUSH1 0x20 ADD SWAP2 PUSH2 0x259 JUMP JUMPDEST DUP3 ADD SWAP2 SWAP1 PUSH0 MSTORE PUSH1 0x20 PUSH0 KECCAK256 SWAP1 JUMPDEST DUP2 SLOAD DUP2 MSTORE SWAP1 PUSH1 0x1 ADD SWAP1 PUSH1 0x20 ADD DUP1 DUP4 GT PUSH2 0x23C JUMPI DUP3 SWAP1 SUB PUSH1 0x1F AND DUP3 ADD SWAP2 JUMPDEST POP POP POP POP POP SWAP1 POP SWAP2 SWAP1 POP JUMP JUMPDEST PUSH0 PUSH1 0x40 MLOAD SWAP1 POP SWAP1 JUMP JUMPDEST PUSH0 DUP1 REVERT JUMPDEST PUSH0 DUP1 REVERT JUMPDEST PUSH0 DUP1 REVERT JUMPDEST PUSH0 DUP1 REVERT JUMPDEST PUSH0 PUSH1 0x1F NOT PUSH1 0x1F DUP4 ADD AND SWAP1 POP SWAP2 SWAP1 POP JUMP JUMPDEST PUSH32 0x4E487B7100000000000000000000000000000000000000000000000000000000 PUSH0 MSTORE PUSH1 0x41 PUSH1 0x4 MSTORE PUSH1 0x24 PUSH0 REVERT JUMPDEST PUSH2 0x2C4 DUP3 PUSH2 0x27E JUMP JUMPDEST DUP2 ADD DUP2 DUP2 LT PUSH8 0xFFFFFFFFFFFFFFFF DUP3 GT OR ISZERO PUSH2 0x2E3 JUMPI PUSH2 0x2E2 PUSH2 0x28E JUMP JUMPDEST JUMPDEST DUP1 PUSH1 0x40 MSTORE POP POP POP JUMP JUMPDEST PUSH0 PUSH2 0x2F5 PUSH2 0x265 JUMP JUMPDEST SWAP1 POP PUSH2 0x301 DUP3 DUP3 PUSH2 0x2BB JUMP JUMPDEST SWAP2 SWAP1 POP JUMP JUMPDEST PUSH0 PUSH8 0xFFFFFFFFFFFFFFFF DUP3 GT ISZERO PUSH2 0x320 JUMPI PUSH2 0x31F PUSH2 0x28E JUMP JUMPDEST JUMPDEST PUSH2 0x329 DUP3 PUSH2 0x27E JUMP JUMPDEST SWAP1 POP PUSH1 0x20 DUP2 ADD SWAP1 POP SWAP2 SWAP1 POP JUMP JUMPDEST DUP3 DUP2 DUP4 CALLDATACOPY PUSH0 DUP4 DUP4 ADD MSTORE POP POP POP JUMP JUMPDEST PUSH0 PUSH2 0x356 PUSH2 0x351 DUP5 PUSH2 0x306 JUMP JUMPDEST PUSH2 0x2EC JUMP JUMPDEST SWAP1 POP DUP3 DUP2 MSTORE PUSH1 0x20 DUP2 ADD DUP5 DUP5 DUP5 ADD GT ISZERO PUSH2 0x372 JUMPI PUSH2 0x371 PUSH2 0x27A JUMP JUMPDEST JUMPDEST PUSH2 0x37D DUP5 DUP3 DUP6 PUSH2 0x336 JUMP JUMPDEST POP SWAP4 SWAP3 POP POP POP JUMP JUMPDEST PUSH0 DUP3 PUSH1 0x1F DUP4 ADD SLT PUSH2 0x399 JUMPI PUSH2 0x398 PUSH2 0x276 JUMP JUMPDEST JUMPDEST DUP2 CALLDATALOAD PUSH2 0x3A9 DUP5 DUP3 PUSH1 0x20 DUP7 ADD PUSH2 0x344 JUMP JUMPDEST SWAP2 POP POP SWAP3 SWAP2 POP POP JUMP JUMPDEST PUSH0 PUSH1 0x20 DUP3 DUP5 SUB SLT ISZERO PUSH2 0x3C7 JUMPI PUSH2 0x3C6 PUSH2 0x26E JUMP JUMPDEST JUMPDEST PUSH0 DUP3 ADD CALLDATALOAD PUSH8 0xFFFFFFFFFFFFFFFF DUP2 GT ISZERO PUSH2 0x3E4 JUMPI PUSH2 0x3E3 PUSH2 0x272 JUMP JUMPDEST JUMPDEST PUSH2 0x3F0 DUP5 DUP3 DUP6 ADD PUSH2 0x385 JUMP JUMPDEST SWAP2 POP POP SWAP3 SWAP2 POP POP JUMP JUMPDEST PUSH0 DUP2 MLOAD SWAP1 POP SWAP2 SWAP1 POP JUMP JUMPDEST PUSH0 DUP3 DUP3 MSTORE PUSH1 0x20 DUP3 ADD SWAP1 POP SWAP3 SWAP2 POP POP JUMP JUMPDEST PUSH0 JUMPDEST DUP4 DUP2 LT ISZERO PUSH2 0x430 JUMPI DUP1 DUP3 ADD MLOAD DUP2 DUP5 ADD MSTORE PUSH1 0x20 DUP2 ADD SWAP1 POP PUSH2 0x415 JUMP JUMPDEST PUSH0 DUP5 DUP5 ADD MSTORE POP POP POP POP JUMP JUMPDEST PUSH0 PUSH2 0x445 DUP3 PUSH2 0x3F9 JUMP JUMPDEST PUSH2 0x44F DUP2 DUP6 PUSH2 0x403 JUMP JUMPDEST SWAP4 POP PUSH2 0x45F DUP2 DUP6 PUSH1 0x20 DUP7 ADD PUSH2 0x413 JUMP JUMPDEST PUSH2 0x468 DUP2 PUSH2 0x27E JUMP JUMPDEST DUP5 ADD SWAP2 POP POP SWAP3 SWAP2 POP POP JUMP JUMPDEST PUSH0 PUSH1 0x20 DUP3 ADD SWAP1 POP DUP2 DUP2 SUB PUSH0 DUP4 ADD MSTORE PUSH2 0x48B DUP2 DUP5 PUSH2 0x43B JUMP JUMPDEST SWAP1 POP SWAP3 SWAP2 POP POP JUMP JUMPDEST PUSH0 DUP1 PUSH1 0x40 DUP4 DUP6 SUB SLT ISZERO PUSH2 0x4A9 JUMPI PUSH2 0x4A8 PUSH2 0x26E JUMP JUMPDEST JUMPDEST PUSH0 DUP4 ADD CALLDATALOAD PUSH8 0xFFFFFFFFFFFFFFFF DUP2 GT ISZERO PUSH2 0x4C6 JUMPI PUSH2 0x4C5 PUSH2 0x272 JUMP JUMPDEST JUMPDEST PUSH2 0x4D2 DUP6 DUP3 DUP7 ADD PUSH2 0x385 JUMP JUMPDEST SWAP3 POP POP PUSH1 0x20 DUP4 ADD CALLDATALOAD PUSH8 0xFFFFFFFFFFFFFFFF DUP2 GT ISZERO PUSH2 0x4F3 JUMPI PUSH2 0x4F2 PUSH2 0x272 JUMP JUMPDEST JUMPDEST PUSH2 0x4FF DUP6 DUP3 DUP7 ADD PUSH2 0x385 JUMP JUMPDEST SWAP2 POP POP SWAP3 POP SWAP3 SWAP1 POP JUMP JUMPDEST PUSH32 0x4E487B7100000000000000000000000000000000000000000000000000000000 PUSH0 MSTORE PUSH1 0x22 PUSH1 0x4 MSTORE PUSH1 0x24 PUSH0 REVERT JUMPDEST PUSH0 PUSH1 0x2 DUP3 DIV SWAP1 POP PUSH1 0x1 DUP3 AND DUP1 PUSH2 0x54D JUMPI PUSH1 0x7F DUP3 AND SWAP2 POP JUMPDEST PUSH1 0x20 DUP3 LT DUP2 SUB PUSH2 0x560 JUMPI PUSH2 0x55F PUSH2 0x509 JUMP JUMPDEST JUMPDEST POP SWAP2 SWAP1 POP JUMP JUMPDEST PUSH0 DUP2 SWAP1 POP SWAP3 SWAP2 POP POP JUMP JUMPDEST PUSH0 PUSH2 0x57A DUP3 PUSH2 0x3F9 JUMP JUMPDEST PUSH2 0x584 DUP2 DUP6 PUSH2 0x566 JUMP JUMPDEST SWAP4 POP PUSH2 0x594 DUP2 DUP6 PUSH1 0x20 DUP7 ADD PUSH2 0x413 JUMP JUMPDEST DUP1 DUP5 ADD SWAP2 POP POP SWAP3 SWAP2 POP POP JUMP JUMPDEST PUSH0 PUSH2 0x5AB DUP3 DUP5 PUSH2 0x570 JUMP JUMPDEST SWAP2 POP DUP2 SWAP1 POP SWAP3 SWAP2 POP POP JUMP JUMPDEST PUSH0 DUP2 SWAP1 POP DUP2 PUSH0 MSTORE PUSH1 0x20 PUSH0 KECCAK256 SWAP1 POP SWAP2 SWAP1 POP JUMP JUMPDEST PUSH0 PUSH1 0x20 PUSH1 0x1F DUP4 ADD DIV SWAP1 POP SWAP2 SWAP1 POP JUMP JUMPDEST PUSH0 DUP3 DUP3 SHL SWAP1 POP SWAP3 SWAP2 POP POP JUMP JUMPDEST PUSH0 PUSH1 0x8 DUP4 MUL PUSH2 0x612 PUSH32 0xFFFFFFFFFFFFFFFFFFFFFFFFFFFFFFFFFFFFFFFFFFFFFFFFFFFFFFFFFFFFFFFF DUP3 PUSH2 0x5D7 JUMP JUMPDEST PUSH2 0x61C DUP7 DUP4 PUSH2 0x5D7 JUMP JUMPDEST SWAP6 POP DUP1 NOT DUP5 AND SWAP4 POP DUP1 DUP7 AND DUP5 OR SWAP3 POP POP POP SWAP4 SWAP3 POP POP POP JUMP JUMPDEST PUSH0 DUP2 SWAP1 POP SWAP2 SWAP1 POP JUMP JUMPDEST PUSH0 DUP2 SWAP1 POP SWAP2 SWAP1 POP JUMP JUMPDEST PUSH0 PUSH2 0x660 PUSH2 0x65B PUSH2 0x656 DUP5 PUSH2 0x634 JUMP JUMPDEST PUSH2 0x63D JUMP JUMPDEST PUSH2 0x634 JUMP JUMPDEST SWAP1 POP SWAP2 SWAP1 POP JUMP JUMPDEST PUSH0 DUP2 SWAP1 POP SWAP2 SWAP1 POP JUMP JUMPDEST PUSH2 0x679 DUP4 PUSH2 0x646 JUMP JUMPDEST PUSH2 0x68D PUSH2 0x685 DUP3 PUSH2 0x667 JUMP JUMPDEST DUP5 DUP5 SLOAD PUSH2 0x5E3 JUMP JUMPDEST DUP3 SSTORE POP POP POP POP JUMP JUMPDEST PUSH0 SWAP1 JUMP JUMPDEST PUSH2 0x6A1 PUSH2 0x695 JUMP JUMPDEST PUSH2 0x6AC DUP2 DUP5 DUP5 PUSH2 0x670 JUMP JUMPDEST POP POP POP JUMP JUMPDEST JUMPDEST DUP2 DUP2 LT ISZERO PUSH2 0x6CF JUMPI PUSH2 0x6C4 PUSH0 DUP3 PUSH2 0x699 JUMP JUMPDEST PUSH1 0x1 DUP2 ADD SWAP1 POP PUSH2 0x6B2 JUMP JUMPDEST POP POP JUMP JUMPDEST PUSH1 0x1F DUP3 GT ISZERO PUSH2 0x714 JUMPI PUSH2 0x6E5 DUP2 PUSH2 0x5B6 JUMP JUMPDEST PUSH2 0x6EE DUP5 PUSH2 0x5C8 JUMP JUMPDEST DUP2 ADD PUSH1 0x20 DUP6 LT ISZERO PUSH2 0x6FD JUMPI DUP2 SWAP1 POP JUMPDEST PUSH2 0x711 PUSH2 0x709 DUP6 PUSH2 0x5C8 JUMP JUMPDEST DUP4 ADD DUP3 PUSH2 0x6B1 JUMP JUMPDEST POP POP JUMPDEST POP POP POP JUMP JUMPDEST PUSH0 DUP3 DUP3 SHR SWAP1 POP SWAP3 SWAP2 POP POP JUMP JUMPDEST PUSH0 PUSH2 0x734 PUSH0 NOT DUP5 PUSH1 0x8 MUL PUSH2 0x719 JUMP JUMPDEST NOT DUP1 DUP4 AND SWAP2 POP POP SWAP3 SWAP2 POP POP JUMP JUMPDEST PUSH0 PUSH2 0x74C DUP4 DUP4 PUSH2 0x725 JUMP JUMPDEST SWAP2 POP DUP3 PUSH1 0x2 MUL DUP3 OR SWAP1 POP SWAP3 SWAP2 POP POP JUMP JUMPDEST PUSH2 0x765 DUP3 PUSH2 0x3F9 JUMP JUMPDEST PUSH8 0xFFFFFFFFFFFFFFFF DUP2 GT ISZERO PUSH2 0x77E JUMPI PUSH2 0x77D PUSH2 0x28E JUMP JUMPDEST JUMPDEST PUSH2 0x788 DUP3 SLOAD PUSH2 0x536 JUMP JUMPDEST PUSH2 0x793 DUP3 DUP3 DUP6 PUSH2 0x6D3 JUMP JUMPDEST PUSH0 PUSH1 0x20 SWAP1 POP PUSH1 0x1F DUP4 GT PUSH1 0x1 DUP2 EQ PUSH2 0x7C4 JUMPI PUSH0 DUP5 ISZERO PUSH2 0x7B2 JUMPI DUP3 DUP8 ADD MLOAD SWAP1 POP JUMPDEST PUSH2 0x7BC DUP6 DUP3 PUSH2 0x741 JUMP JUMPDEST DUP7 SSTORE POP PUSH2 0x823 JUMP JUMPDEST PUSH1 0x1F NOT DUP5 AND PUSH2 0x7D2 DUP7 PUSH2 0x5B6 JUMP JUMPDEST PUSH0 JUMPDEST DUP3 DUP2 LT ISZERO PUSH2 0x7F9 JUMPI DUP5 DUP10 ADD MLOAD DUP3 SSTORE PUSH1 0x1 DUP3 ADD SWAP2 POP PUSH1 0x20 DUP6 ADD SWAP5 POP PUSH1 0x20 DUP2 ADD SWAP1 POP PUSH2 0x7D4 JUMP JUMPDEST DUP7 DUP4 LT ISZERO PUSH2 0x816 JUMPI DUP5 DUP10 ADD MLOAD PUSH2 0x812 PUSH1 0x1F DUP10 AND DUP3 PUSH2 0x725 JUMP JUMPDEST DUP4 SSTORE POP JUMPDEST PUSH1 0x1 PUSH1 0x2 DUP9 MUL ADD DUP9 SSTORE POP POP POP JUMPDEST POP POP POP POP POP POP JUMP INVALID LOG2 PUSH5 0x6970667358 0x22 SLT KECCAK256 PUSH14 0xC52B89C78C09E6708B500C454881 POP RETURN 0xB0 DUP9 0xB5 REVERT PUSH22 0x5D793633198A8BCA618D64736F6C6343000818003300 "
		},
		"gasEstimates": {
			"creation": {
				"codeDepositCost": "429000",
				"executionCost": "466",
				"totalCost": "429466"
			},
			"external": {
				"addCouple(string,string)": "infinite",
				"couples(string)": "infinite",
				"getGf(string)": "infinite"
			}
		},
		"methodIdentifiers": {
			"addCouple(string,string)": "9021c089",
			"couples(string)": "31bad10f",
			"getGf(string)": "e9f9730e"
		}
	},
	"abi": [
		{
			"inputs": [
				{
					"internalType": "string",
					"name": "bf",
					"type": "string"
				},
				{
					"internalType": "string",
					"name": "gf",
					"type": "string"
				}
			],
			"name": "addCouple",
			"outputs": [
				{
					"internalType": "string",
					"name": "",
					"type": "string"
				}
			],
			"stateMutability": "nonpayable",
			"type": "function"
		},
		{
			"inputs": [
				{
					"internalType": "string",
					"name": "",
					"type": "string"
				}
			],
			"name": "couples",
			"outputs": [
				{
					"internalType": "string",
					"name": "",
					"type": "string"
				}
			],
			"stateMutability": "view",
			"type": "function"
		},
		{
			"inputs": [
				{
					"internalType": "string",
					"name": "bf",
					"type": "string"
				}
			],
			"name": "getGf",
			"outputs": [
				{
					"internalType": "string",
					"name": "",
					"type": "string"
				}
			],
			"stateMutability": "view",
			"type": "function"
		}
	]
}